{
  "contractName": "SimpleStorage",
  "abi": [
    {
      "inputs": [
        {
          "internalType": "uint256",
          "name": "x",
          "type": "uint256"
        }
      ],
      "name": "set",
      "outputs": [],
      "stateMutability": "nonpayable",
      "type": "function"
    },
    {
      "inputs": [],
      "name": "get",
      "outputs": [
        {
          "internalType": "uint256",
          "name": "",
          "type": "uint256"
        }
      ],
      "stateMutability": "view",
      "type": "function",
      "constant": true
    }
  ],
  "bytecode": "0x608060405234801561001057600080fd5b5060e48061001f6000396000f3fe6080604052348015600f57600080fd5b5060043610604f576000357c01000000000000000000000000000000000000000000000000000000009004806360fe47b11460545780636d4ce63c14607f575b600080fd5b607d60048036036020811015606857600080fd5b8101908080359060200190929190505050609b565b005b608560a5565b6040518082815260200191505060405180910390f35b8060008190555050565b6000805490509056fea2646970667358221220c0ca1467be222aece45fb78cea082d2c8bf55577dab56d21cac7ac77b1669d9464736f6c63430007000033",
  "immutableReferences": {},
  "source": "pragma solidity >=0.5.8;\n\ncontract SimpleStorage {\n    uint256 storedData;\n\n    function set(uint256 x) public {\n        storedData = x;\n    }\n\n    function get() public view returns (uint256) {\n        return storedData;\n    }\n}",
  "sourcePath": "/home/aaron/crypto/defi/consensys-ethereum-developer-onboarding/contracts/SimpleStorage.sol",
  "compiler": {
    "name": "solc",
    "version": "0.7.0+commit.9e61f92b.Emscripten.clang"
  },
  "schemaVersion": "3.2.1",
  "updatedAt": "2020-10-18T22:33:23.314Z",
  "networkType": "ethereum",
  "devdoc": {
    "kind": "dev",
    "methods": {},
    "version": 1
  },
  "userdoc": {
    "kind": "user",
    "methods": {},
    "version": 1
  }
}